S01200004D6963726F7765656B352E7372656337
S113000045C0000021C100007FC100005CC00000A9
S11300105AC0000058C0000056C0000054C0000080
S113002052C0000050C000004EC000004CC0000090
S1130030E5C1000048C0000046C0000044C0000004
S113004042C0000040C000003EC000003CC00000B0
S11300503AC0000038C0000036C0000034C00000C0
S113006032C0000030C000002EC000002CC00000D0
S11300702AC0000028C0000026C0000024C00000E0
S113008022C0000020C000001EC0000011241FBEBA
S1130090CFEFD0E1DEBFCDBF11E0A0E0B1E0E4E4FA
S11300A0F5E000E00BBF02C007900D92AE30B1073F
S11300B0D9F721E0AEE0B1E001C01D92A431B2074E
S11300C0E1F79BD03DC29CCF181619066CF420E0D2
S11300D030E0EFECF7E03197F1F700C000002F5F5C
S11300E03F4F82179307A9F708958FEF87BBBB98FB
S11300F0C09A82E58DB908958FB9779BFECF089594
S113010098B321E030E002C0220F331F8A95E2F752
S11301102095292328BB089598B321E030E002C03C
S1130120220F331F8A95E2F7292B28BB089580E01C
S1130130E7DF89E0E1DF8FEFDFDF80E0EDDF80E004
S1130140DFDF8AE0D9DF84E0D7DF80E0E5DF80E02D
S1130150D7DF8BE0D1DF83E0CFDF80E0DDDF80E03D
S1130160CFDF8CE0C9DF81E0C7DF80E0D5CF089521
S1130170CF93DF93D82FC62F80E0C2DF8D2FBCDF53
S11301808C2FBADF80E0C8DF8AE090E09DDFDF914A
S1130190CF910895EF92FF921F93CF93DF93C62FD1
S11301A0009721F460E08C2FE3DF15C018161906C0
S11301B094F40F2EFAE0EF2EF12CF02DB70199D123
S11301C0162FD72F682F8C2FD3DF812F9D2FCF5F32
S11301D0181619069CF3DF91CF911F91FF90EF90B1
S11301E0089582E19AE79BBD8ABD87B7806187BF86
S11301F01FBC8CE08EBD7894089581E087BB8FEF9F
S113020084BB81BB899888988BE080936A0083E0E3
S113021089BFE7DF6ADF8BDFC1E080E071DF8C2F0D
S11302206BDF80E069DF80E077DFCF5FC530A9F75F
S113023080E066DF83E060DF80E85EDF80E06CDF23
S11302408AE090E041DFFCCF1F920F920FB60F922D
S113025011240BB60F922F933F934F935F936F9399
S11302607F938F939F93AF93BF93EF93FF9380916B
S11302700001909101010197A1F5109201011092E2
S11302800001809110019091110101968C33910528
S11302902CF4909311018093100109C01092110164
S11302A01092100162E070E080E090E073DF61E0A2
S11302B070E080911001909111016CDF8091100128
S11302C0909111016AE070E014D1FC01EC5FFE4FE3
S11302D0608181E04DDF81E090E0909301018093A3
S11302E00001FF91EF91BF91AF919F918F917F9109
S11302F06F915F914F913F912F910F900BBE0F9093
S11303000FBE0F901F9018951F920F920FB60F9269
S113031011240BB60F922F933F934F935F936F93D8
S11303207F938F939F93AF93BF93EF93FF938091AA
S11303300201909103010197A1F51092030110921B
S1130340020180910E0190910F010196883191056F
S11303502CF490930F0180930E0109C010920F01A9
S113036010920E0164E070E080E090E013DF63E03F
S113037070E080910E0190910F010CDF80910E01CD
S113038090910F016AE070E0B4D0FC01EC5FFE4F85
S1130390608183E0EDDE81E090E09093030180933F
S11303A00201FF91EF91BF91AF919F918F917F9146
S11303B06F915F914F913F912F910F900BBE0F90D2
S11303C00FBE0F901F9018958091120180FD08C0F8
S11303D061E070E08091100190911101DBCE0895ED
S11303E080911001909111016AE070E082D0FC01CB
S11303F0EC5FFE4F608181E0BBCE08951F920F92A7
S11304000FB60F9211240BB60F922F933F934F9375
S11304105F936F937F938F939F93AF93BF93EF9368
S1130420FF9380911201909113010196909313010F
S113043080931201C9DF95B381E0892785BB809140
S1130440120190911301CC9709F040C080911001E2
S113045090911101019690931101809310011092D3
S1130460130110921201CC978CF110921101109289
S1130470100162E070E080E090E08CDE80910E017B
S113048090910F01019690930F0180930E0163E008
S113049070E080DE80910E0190910F016AE070E0BF
S11304A028D0FC01EC5FFE4F608183E061DE809127
S11304B00E0190910F0148974CF010920F01109289
S11304C00E0164E070E080E090E064DEFF91EF9163
S11304D0BF91AF919F918F917F916F915F914F9158
S11304E03F912F910F900BBE0F900FBE0F901F9056
S11304F0189597FB072E16F4009406D077FD08D0C4
S11305000BD007FC05D03EF4909581959F4F08953C
S1130510709561957F4F0895AA1BBB1B51E107C0DD
S1130520AA1FBB1FA617B70710F0A61BB70B881F7F
S1130530991F5A95A9F780959095BC01CD0108950E
S1070540F894FFCF59
S1110544010001008081828384858687888976
S9030000FC
