:1000000045C0000072C00000B3C000005CC000002A
:100010005AC0000058C0000056C0000054C0000084
:1000200052C0000050C000004EC000004CC0000094
:100030004AC0000048C0000046C0000044C00000A4
:1000400042C0000040C000003EC000003CC00000B4
:100050003AC0000038C0000036C0000034C00000C4
:1000600032C0000030C000002EC000002CC00000D4
:100070002AC0000028C0000026C0000024C00000E4
:1000800022C0000020C000001EC0000011241FBEBE
:10009000CFEFD0E1DEBFCDBF11E0A0E0B1E0E8E1FD
:1000A000F2E000E00BBF02C007900D92A030B10754
:1000B000D9F721E0A0E0B1E001C01D92A230B20763
:1000C000E1F79AD0A7C09CCF181619066CF420E06F
:1000D00030E0E9EFF0E03197F1F700C000002F5F6A
:1000E0003F4F82179307A9F708951F920F920FB6FB
:1000F0000F9211240BB60F922F933F934F935F9360
:100100006F937F938F939F93AF93BF93EF93FF93DF
:100110002091000130910101293031059CF432B366
:1001200081E090E002C0880F991F2A95E2F7832BA7
:1001300082BB809100019091010101969093010191
:100140008093000188EE93E0BFDFFF91EF91BF91B4
:10015000AF919F918F917F916F915F914F913F915F
:100160002F910F900BBE0F900FBE0F901F90189500
:100170001F920F920FB60F9211240BB60F922F936E
:100180003F934F935F936F937F938F939F93AF931F
:10019000BF93EF93FF932091000130910101243030
:1001A0003105A4F032B381E090E002C0880F991FBE
:1001B0002A95E2F78095832382BB8091000190917C
:1001C00001010197909301018093000188EE93E073
:1001D0007BDFFF91EF91BF91AF919F918F917F91C5
:1001E0006F915F914F913F912F910F900BBE0F90A8
:1001F0000FBE0F901F90189580EF81BB8FEF84BBCF
:10020000EAE6F0E080818B60808389B7836089BFF4
:080210007894FFCFF894FFCFB2
:00000001FF
