:1000000045C0000072C00000B4C000005CC0000029
:100010005AC0000058C0000056C0000054C0000084
:1000200052C0000050C000004EC000004CC0000094
:100030004AC0000048C0000046C0000044C00000A4
:1000400042C0000040C000003EC000003CC00000B4
:100050003AC0000038C0000036C0000034C00000C4
:1000600032C0000030C000002EC000002CC00000D4
:100070002AC0000028C0000026C0000024C00000E4
:1000800022C0000020C000001EC0000011241FBEBE
:10009000CFEFD0E1DEBFCDBF11E0A0E0B1E0E6E1FF
:1000A000F2E000E00BBF02C007900D92A031B10753
:1000B000D9F721E0A0E1B1E001C01D92A231B20761
:1000C000E1F799D0A6C09CCF181619066CF420E071
:1000D00030E0E9EFF0E03197F1F700C000002F5F6A
:1000E0003F4F82179307A9F708951F920F920FB6FB
:1000F0000F9211240BB60F922F933F934F935F9360
:100100006F937F938F939F93AF93BF93EF93FF93DF
:1001100080911001909111010F9721F4109211011B
:1001200010921001E0911001F0911101E050FF4F89
:10013000808185BB8091100190911101019690936F
:1001400011018093100188EE93E0BEDFFF91EF91E3
:10015000BF91AF919F918F917F916F915F914F91DF
:100160003F912F910F900BBE0F900FBE0F901F90DD
:1001700018951F920F920FB60F9211240BB60F9283
:100180002F933F934F935F936F937F938F939F939F
:10019000AF93BF93EF93FF93E0911001F0911101A2
:1001A000E050FF4F808185BB80911001909111013B
:1001B000019729F0909311018093100106C08FE000
:1001C00090E0909311018093100188EE93E07CDF22
:1001D000FF91EF91BF91AF919F918F917F916F911F
:1001E0005F914F913F912F910F900BBE0F900FBEDB
:1001F0000F901F90189580EF81BB8FEF84BBEAE6CC
:10020000F0E080818B60808389B7836089BF7894B8
:06021000FFCFF894FFCFC0
:100216003F065B4F666D7D077F6F777C395E797130
:00000001FF
