:1000000045C0000060C000005EC000005CC0000091
:100010005AC0000058C0000056C0000054C0000084
:1000200052C0000050C00000CCC000004CC0000016
:100030004AC0000048C0000046C0000044C00000A4
:1000400042C0000040C000003EC000003CC00000B4
:100050003AC0000038C0000036C0000034C00000C4
:1000600032C0000030C000002EC000002CC00000D4
:100070002AC0000028C0000026C0000024C00000E4
:1000800022C0000020C000001EC0000011241FBEBE
:10009000CFEFD0E1DEBFCDBF11E0A0E0B1E0E2E5FF
:1000A000F2E000E00BBF02C007900D92A630B1074E
:1000B000D9F721E0A6E0B1E001C01D92A830B20757
:1000C000E1F7B3D0C4C09CCFAB9A89EF90E0019721
:1000D000F1F700C00000AB9889EF90E00197F1F7CD
:1000E00000C000000895181619066CF420E030E0F6
:1000F000E9EFF0E03197F1F700C000002F5F3F4FCC
:1001000082179307A9F70895CF93C82F85BBAA9AA2
:10011000DBDFC295C07FC5BBAA9AD6DFCF91089519
:10012000CF93C82F85BBAA98CFDFC295C07FC5BB30
:10013000AA98CADFCF9108958FEF84BB15BA81E0EA
:1001400090E0EEDFC1DF82E090E0EADFBDDF80E239
:1001500090E0E6DFB9DF80E290E0E2DFB5DF80E843
:1001600090E0DEDFB1DF80E090E0DADFADDF80EF4E
:1001700090E0D6DFA9DF80E090E0D2DFA5DF80E667
:1001800090E0CEDFA1CF0895CF93DF93EC0182E022
:1001900090E0C6DF99DF8881882329F02196B4DFBB
:1001A00089918111FCCFDF91CF91089586EF84BDB5
:1001B00087B7826087BF8FB781608FBF87E085BDBB
:1001C00008951F920F920FB60F9211240BB60F9243
:1001D0002F933F934F935F936F937F938F939F934F
:1001E000AF93BF93EF93FF9386EF84BD8091060199
:1001F000909107010196909307018093060180E09A
:1002000091E0C2DFFF91EF91BF91AF919F918F91EC
:100210007F916F915F914F913F912F910F900BBE06
:100220000F900FBE0F901F90189581B3817081BB06
:100230008FEF87BB8ABB80DFB9DFC6E0D1E084B532
:100240008BBB888188BB8AE090E04DDFF8CFF894C3
:02025000FFCFDE
:0602520048414C4C4F0036
:00000001FF
